{
  "_format": "hh-sol-artifact-1",
  "contractName": "payroll",
  "sourceName": "contracts/Bonus.sol",
  "abi": [
    {
      "inputs": [],
      "stateMutability": "nonpayable",
      "type": "constructor"
    },
    {
      "anonymous": false,
      "inputs": [
        {
          "indexed": true,
          "internalType": "address",
          "name": "claimedPerson",
          "type": "address"
        },
        {
          "indexed": false,
          "internalType": "uint256",
          "name": "claimedAmt",
          "type": "uint256"
        }
      ],
      "name": "rewardTransfer",
      "type": "event"
    },
    {
      "anonymous": false,
      "inputs": [
        {
          "indexed": true,
          "internalType": "address",
          "name": "claimedPerson",
          "type": "address"
        },
        {
          "indexed": false,
          "internalType": "uint256",
          "name": "claimedAmt",
          "type": "uint256"
        }
      ],
      "name": "salaryTransfer",
      "type": "event"
    },
    {
      "inputs": [
        {
          "internalType": "uint256",
          "name": "id",
          "type": "uint256"
        },
        {
          "internalType": "address",
          "name": "_reward",
          "type": "address"
        }
      ],
      "name": "ClaimReward",
      "outputs": [],
      "stateMutability": "payable",
      "type": "function"
    },
    {
      "inputs": [
        {
          "internalType": "uint256",
          "name": "id",
          "type": "uint256"
        },
        {
          "internalType": "address",
          "name": "_token",
          "type": "address"
        }
      ],
      "name": "ClaimSalary",
      "outputs": [],
      "stateMutability": "payable",
      "type": "function"
    },
    {
      "inputs": [
        {
          "internalType": "uint256",
          "name": "_salary",
          "type": "uint256"
        },
        {
          "internalType": "address",
          "name": "_address",
          "type": "address"
        },
        {
          "internalType": "uint256",
          "name": "_joiningDate",
          "type": "uint256"
        }
      ],
      "name": "addEmployee",
      "outputs": [],
      "stateMutability": "nonpayable",
      "type": "function"
    },
    {
      "inputs": [
        {
          "internalType": "address",
          "name": "_token",
          "type": "address"
        }
      ],
      "name": "balanceAndSupply",
      "outputs": [
        {
          "internalType": "uint256",
          "name": "",
          "type": "uint256"
        }
      ],
      "stateMutability": "view",
      "type": "function"
    },
    {
      "inputs": [],
      "name": "employeeId",
      "outputs": [
        {
          "internalType": "uint256",
          "name": "",
          "type": "uint256"
        }
      ],
      "stateMutability": "view",
      "type": "function"
    },
    {
      "inputs": [
        {
          "internalType": "uint256",
          "name": "",
          "type": "uint256"
        }
      ],
      "name": "employeeList",
      "outputs": [
        {
          "internalType": "uint256",
          "name": "id",
          "type": "uint256"
        },
        {
          "internalType": "uint256",
          "name": "salary",
          "type": "uint256"
        },
        {
          "internalType": "address",
          "name": "salaryAddress",
          "type": "address"
        },
        {
          "internalType": "uint256",
          "name": "joiningDate",
          "type": "uint256"
        },
        {
          "internalType": "uint256",
          "name": "lastRewardClaimUpdate",
          "type": "uint256"
        },
        {
          "internalType": "uint256",
          "name": "lastSalaryClaimUpdate",
          "type": "uint256"
        }
      ],
      "stateMutability": "view",
      "type": "function"
    },
    {
      "inputs": [
        {
          "internalType": "address",
          "name": "",
          "type": "address"
        }
      ],
      "name": "isIdExist",
      "outputs": [
        {
          "internalType": "uint256",
          "name": "",
          "type": "uint256"
        }
      ],
      "stateMutability": "view",
      "type": "function"
    },
    {
      "inputs": [
        {
          "internalType": "address",
          "name": "",
          "type": "address"
        }
      ],
      "name": "isWhiteListed",
      "outputs": [
        {
          "internalType": "bool",
          "name": "",
          "type": "bool"
        }
      ],
      "stateMutability": "view",
      "type": "function"
    },
    {
      "inputs": [],
      "name": "superAdmin",
      "outputs": [
        {
          "internalType": "address",
          "name": "",
          "type": "address"
        }
      ],
      "stateMutability": "view",
      "type": "function"
    },
    {
      "inputs": [
        {
          "internalType": "uint256",
          "name": "_id",
          "type": "uint256"
        },
        {
          "internalType": "uint256",
          "name": "_salary",
          "type": "uint256"
        },
        {
          "internalType": "bool",
          "name": "whiteListed",
          "type": "bool"
        }
      ],
      "name": "upgradeStatus",
      "outputs": [],
      "stateMutability": "nonpayable",
      "type": "function"
    }
  ],
  "bytecode": "0x608060405234801561001057600080fd5b50336000806101000a81548173ffffffffffffffffffffffffffffffffffffffff021916908373ffffffffffffffffffffffffffffffffffffffff160217905550611260806100606000396000f3fe6080604052600436106100915760003560e01c806384ab30a51161005957806384ab30a5146101805780638ca7d211146101ab578063b0bcba50146101e8578063c3b2d07a14610204578063ede8bcb71461024657610091565b806329575f6a1461009657806342b1644c146100c1578063493961aa146100dd57806354731466146101065780636f9170f614610143575b600080fd5b3480156100a257600080fd5b506100ab61026f565b6040516100b89190610c2c565b60405180910390f35b6100db60048036038101906100d69190610cae565b610293565b005b3480156100e957600080fd5b5061010460048036038101906100ff9190610cee565b610490565b005b34801561011257600080fd5b5061012d60048036038101906101289190610d41565b610744565b60405161013a9190610d7d565b60405180910390f35b34801561014f57600080fd5b5061016a60048036038101906101659190610d41565b61075c565b6040516101779190610db3565b60405180910390f35b34801561018c57600080fd5b5061019561077c565b6040516101a29190610d7d565b60405180910390f35b3480156101b757600080fd5b506101d260048036038101906101cd9190610d41565b610782565b6040516101df9190610d7d565b60405180910390f35b61020260048036038101906101fd9190610cae565b6107ff565b005b34801561021057600080fd5b5061022b60048036038101906102269190610dce565b610a28565b60405161023d96959493929190610dfb565b60405180910390f35b34801561025257600080fd5b5061026d60048036038101906102689190610e88565b610a84565b005b60008054906101000a900473ffffffffffffffffffffffffffffffffffffffff1681565b600060026000848152602001908152602001600020600501549050600060026000858152602001908152602001600020600101549050601e826102d69190610f0a565b421015806102e45750600082145b610323576040517f08c379a000000000000000000000000000000000000000000000000000000000815260040161031a90610f9b565b60405180910390fd5b8273ffffffffffffffffffffffffffffffffffffffff1663a9059cbb6002600087815260200190815260200160002060020160009054906101000a900473ffffffffffffffffffffffffffffffffffffffff16670de0b6b3a76400008461038a9190610fbb565b6040518363ffffffff1660e01b81526004016103a7929190610ffd565b6020604051808303816000875af11580156103c6573d6000803e3d6000fd5b505050506040513d601f19601f820116820180604052508101906103ea919061103b565b504260026000868152602001908152602001600020600501819055506002600085815260200190815260200160002060020160009054906101000a900473ffffffffffffffffffffffffffffffffffffffff1673ffffffffffffffffffffffffffffffffffffffff167ff3856c7c710e3213c7074b8df81e0d29f53ff2ad84866681607ab4af5e8c50b0826040516104829190610d7d565b60405180910390a250505050565b60008054906101000a900473ffffffffffffffffffffffffffffffffffffffff1673ffffffffffffffffffffffffffffffffffffffff163373ffffffffffffffffffffffffffffffffffffffff161461051e576040517f08c379a0000000000000000000000000000000000000000000000000000000008152600401610515906110b4565b60405180910390fd5b600360008373ffffffffffffffffffffffffffffffffffffffff1673ffffffffffffffffffffffffffffffffffffffff16815260200190815260200160002060009054906101000a900460ff16156105ab576040517f08c379a00000000000000000000000000000000000000000000000000000000081526004016105a290611120565b60405180910390fd5b600160008154809291906105be90611140565b919050555060006040518060c0016040528060015481526020018581526020018473ffffffffffffffffffffffffffffffffffffffff168152602001838152602001600081526020016000815250905080600260006001548152602001908152602001600020600082015181600001556020820151816001015560408201518160020160006101000a81548173ffffffffffffffffffffffffffffffffffffffff021916908373ffffffffffffffffffffffffffffffffffffffff160217905550606082015181600301556080820151816004015560a082015181600501559050506001600360008573ffffffffffffffffffffffffffffffffffffffff1673ffffffffffffffffffffffffffffffffffffffff16815260200190815260200160002060006101000a81548160ff021916908315150217905550600154600460008573ffffffffffffffffffffffffffffffffffffffff1673ffffffffffffffffffffffffffffffffffffffff1681526020019081526020016000208190555050505050565b60046020528060005260406000206000915090505481565b60036020528060005260406000206000915054906101000a900460ff1681565b60015481565b6000808273ffffffffffffffffffffffffffffffffffffffff166318160ddd6040518163ffffffff1660e01b8152600401602060405180830381865afa1580156107d0573d6000803e3d6000fd5b505050506040513d601f19601f820116820180604052508101906107f4919061119d565b905080915050919050565b600060026000848152602001908152602001600020600401549050605a816108279190610f0a565b421015806108355750600081145b610874576040517f08c379a000000000000000000000000000000000000000000000000000000000815260040161086b90610f9b565b60405180910390fd5b60006002600085815260200190815260200160002060010154905060006108b860646108aa600a85610bbf90919063ffffffff16565b610bd590919063ffffffff16565b90508373ffffffffffffffffffffffffffffffffffffffff1663a9059cbb6002600088815260200190815260200160002060020160009054906101000a900473ffffffffffffffffffffffffffffffffffffffff16670de0b6b3a7640000846109219190610fbb565b6040518363ffffffff1660e01b815260040161093e929190610ffd565b6020604051808303816000875af115801561095d573d6000803e3d6000fd5b505050506040513d601f19601f82011682018060405250810190610981919061103b565b504260026000878152602001908152602001600020600401819055506002600086815260200190815260200160002060020160009054906101000a900473ffffffffffffffffffffffffffffffffffffffff1673ffffffffffffffffffffffffffffffffffffffff167f08a76e20f06d5b535292bb56df64e0b8a04269f63be836545e330b0a4d47d49e82604051610a199190610d7d565b60405180910390a25050505050565b60026020528060005260406000206000915090508060000154908060010154908060020160009054906101000a900473ffffffffffffffffffffffffffffffffffffffff16908060030154908060040154908060050154905086565b60008054906101000a900473ffffffffffffffffffffffffffffffffffffffff1673ffffffffffffffffffffffffffffffffffffffff163373ffffffffffffffffffffffffffffffffffffffff1614610b12576040517f08c379a0000000000000000000000000000000000000000000000000000000008152600401610b09906110b4565b60405180910390fd5b81600260008581526020019081526020016000206001018190555080600360006002600087815260200190815260200160002060020160009054906101000a900473ffffffffffffffffffffffffffffffffffffffff1673ffffffffffffffffffffffffffffffffffffffff1673ffffffffffffffffffffffffffffffffffffffff16815260200190815260200160002060006101000a81548160ff021916908315150217905550505050565b60008183610bcd9190610fbb565b905092915050565b60008183610be391906111f9565b905092915050565b600073ffffffffffffffffffffffffffffffffffffffff82169050919050565b6000610c1682610beb565b9050919050565b610c2681610c0b565b82525050565b6000602082019050610c416000830184610c1d565b92915050565b600080fd5b6000819050919050565b610c5f81610c4c565b8114610c6a57600080fd5b50565b600081359050610c7c81610c56565b92915050565b610c8b81610c0b565b8114610c9657600080fd5b50565b600081359050610ca881610c82565b92915050565b60008060408385031215610cc557610cc4610c47565b5b6000610cd385828601610c6d565b9250506020610ce485828601610c99565b9150509250929050565b600080600060608486031215610d0757610d06610c47565b5b6000610d1586828701610c6d565b9350506020610d2686828701610c99565b9250506040610d3786828701610c6d565b9150509250925092565b600060208284031215610d5757610d56610c47565b5b6000610d6584828501610c99565b91505092915050565b610d7781610c4c565b82525050565b6000602082019050610d926000830184610d6e565b92915050565b60008115159050919050565b610dad81610d98565b82525050565b6000602082019050610dc86000830184610da4565b92915050565b600060208284031215610de457610de3610c47565b5b6000610df284828501610c6d565b91505092915050565b600060c082019050610e106000830189610d6e565b610e1d6020830188610d6e565b610e2a6040830187610c1d565b610e376060830186610d6e565b610e446080830185610d6e565b610e5160a0830184610d6e565b979650505050505050565b610e6581610d98565b8114610e7057600080fd5b50565b600081359050610e8281610e5c565b92915050565b600080600060608486031215610ea157610ea0610c47565b5b6000610eaf86828701610c6d565b9350506020610ec086828701610c6d565b9250506040610ed186828701610e73565b9150509250925092565b7f4e487b7100000000000000000000000000000000000000000000000000000000600052601160045260246000fd5b6000610f1582610c4c565b9150610f2083610c4c565b9250828201905080821115610f3857610f37610edb565b5b92915050565b600082825260208201905092915050565b7f74696d65206572726f7200000000000000000000000000000000000000000000600082015250565b6000610f85600a83610f3e565b9150610f9082610f4f565b602082019050919050565b60006020820190508181036000830152610fb481610f78565b9050919050565b6000610fc682610c4c565b9150610fd183610c4c565b9250828202610fdf81610c4c565b91508282048414831517610ff657610ff5610edb565b5b5092915050565b60006040820190506110126000830185610c1d565b61101f6020830184610d6e565b9392505050565b60008151905061103581610e5c565b92915050565b60006020828403121561105157611050610c47565b5b600061105f84828501611026565b91505092915050565b7f556e617574686f72697a6564206964656e746974793100000000000000000000600082015250565b600061109e601683610f3e565b91506110a982611068565b602082019050919050565b600060208201905081810360008301526110cd81611091565b9050919050565b7f456d706c6f79656520416c726561647920457869737400000000000000000000600082015250565b600061110a601683610f3e565b9150611115826110d4565b602082019050919050565b60006020820190508181036000830152611139816110fd565b9050919050565b600061114b82610c4c565b91507fffffffffffffffffffffffffffffffffffffffffffffffffffffffffffffffff820361117d5761117c610edb565b5b600182019050919050565b60008151905061119781610c56565b92915050565b6000602082840312156111b3576111b2610c47565b5b60006111c184828501611188565b91505092915050565b7f4e487b7100000000000000000000000000000000000000000000000000000000600052601260045260246000fd5b600061120482610c4c565b915061120f83610c4c565b92508261121f5761121e6111ca565b5b82820490509291505056fea2646970667358221220290221f2eb4917c0e5dabcd15273afeb16f136ddb5f3589c3288f5b36036ecba64736f6c63430008110033",
  "linkReferences": {},
  "deployedLinkReferences": {}
}